522576G00000029457868USSAMI D. BAHM                        4 EF
522576G00000029457868USSAMI D. BAHM                        4 EF
522576G00000029457868USSAMI D. BAHM                        4 EF
522576G00000029457868USSAMI D. BAHM                          E
522576G00000029457868USSAMI D. BAHM                        4 EF